:1000000054C078C077C076C075C074C073C072C069
:1000100071C070C06FC06EC06DC06CC06BC06AC074
:10002000CCC868C0B2C3F7C365C064C063C062C057
:100030007CC960C0DEC1F8C123C24EC27BC28EC281
:10004000A8C2D0C2E5C20FC323C33EC30000000054
:10005000240027002A0000000000250028002B00B3
:100060000000000023002600290004040404040406
:100070000404020202020202030303030303010257
:100080000408102040800102040810200102040826
:100090001020000000070002010000030406000019
:1000A00000000000000067054B0811241FBECFEFC1
:1000B000D4E0DEBFCDBF11E0A0E0B1E0EAE8FCE1B2
:1000C00002C005900D92AC3AB107D9F713E0ACEA43
:1000D000B1E001C01D92A532B107E1F710E0CAEA14
:1000E000D0E003C02297FE01CADDC63AD107D1F79E
:1000F00061D727CB85CFFC019B01CB016AE070E083
:1001000058DD462FC90160E07AE053DDE130F105AA
:1001100019F0329751F405C0409372016093730156
:10012000089540937401609375010895823091059C
:1001300079F0833091051CF4019791F406C0833067
:10014000910549F0049761F409C060936E01089528
:10015000609367010895609382010895609383011D
:10016000089521E0853F920720F480936B019093DE
:100170006A01089527E28F30920720F480936D0181
:1001800090936C0108959C010797825E934030F430
:10019000822F8250809386013093870108950097C3
:1001A00029F480E090E0A0E0B0E00FC00197BC012E
:1001B00080E090E02BE935E040E050E0DBDC28EE29
:1001C00033E040E050E01CDDC90189559F4F80932A
:1001D00088019093890108954F925F926F927F9268
:1001E0008F929F92AF92BF92CF92DF92EF92FF9247
:1001F0000F931F934C013B012A01FC01E080F18029
:1002000002811381C801B70120E836E948E950E0CE
:1002100019DD59016A01B901882777FD8095982F6A
:1002200020E839E647E65FEFA5DCE60EF71E081F7B
:10023000191FC801B70126E030E040E050E09ADC29
:100240007B018C0120E432E44FE050E0FBDC84E6EB
:1002500090E0AC01A49EC001A59E900DB49E900DAF
:100260001124820F931FF30191838083B9018827A2
:1002700077FD8095982F20EC3DEB40EF5FEF7ADC27
:100280006E0D7F1D801F911FF40160837183828337
:10029000938324E630E040E050E0D4DCF201318387
:1002A00020831F910F91FF90EF90DF90CF90BF9030
:1002B000AF909F908F907F906F905F904F90089538
:1002C000DF93CF93CDB7DEB728970FB6F894DEBF94
:1002D0000FBECDBF6D837E838F839887CE01059639
:1002E000BE016F5F7F4FAE014D5F5F4F75DF8B814A
:1002F0009C8180936401892F990F990B80936301EE
:1003000089819A8180936601892F990F990B809337
:10031000650128960FB6F894DEBF0FBECDBFCF9112
:10032000DF910895DF93CF93CDB7DEB728970FB64F
:10033000F894DEBF0FBECDBF6D837E838F83988719
:10034000CE010596BE016F5F7F4FAE014D5F5F4FDF
:1003500043DF8B819C8180935D01892F990F990BDD
:1003600080935C0189819A8180935F01892F990F25
:10037000990B80935E0128960FB6F894DEBF0FBEEE
:10038000CDBFCF91DF9108951F93CF93DF93CDEA37
:10039000D1E010E08AE392E0F5D2892BD9F38AE329
:1003A00092E021D31A3221F48A3211F480E007C09E
:1003B0008993182F81E0C13BD80761F781E0DF9175
:1003C000CF911F910895E0DF882341F41092AC0192
:1003D0008AE392E060E071E0DCD508958091AC01A1
:1003E000E82FF0E0EC30F10508F08AC1E65EFF4F3F
:1003F00009948AE392E063E071E02AD58091AD012F
:100400009091AE016AE070E0E8DB6093AD0170931B
:10041000AE018AE392E04AE050E0FDD46091AD0184
:10042000685D81E090E032C18AE392E069E071E0CA
:100430000FD54091AD015091AE016091AF01709127
:10044000B0018AE392E02AE030E092D56091AD01FC
:100450007091AE018091AF019091B00120E030E049
:1004600040E251E424DB6093AD017093AE018093D0
:10047000AF019093B0013DDADC01CB0184DE4EC1C7
:100480008AE392E06EE071E0E3D44091AD015091D7
:10049000AE016091AF017091B0018AE392E02AE071
:1004A00030E066D56091AD017091AE018091AF01F1
:1004B0009091B00120E030E048EC52E4F8DA60932B
:1004C000AD017093AE018093AF019093B00111DA4A
:1004D000DC01CB0164DE22C18AE392E063E171E0DA
:1004E000B7D44091AD015091AE016091AF017091D0
:1004F000B0018AE392E02AE030E03AD56091AD01A4
:100500007091AE018091AF019091B00120E030E098
:1005100040E251E4CCDA6093AD017093AE01809378
:10052000AF019093B001E5D99B01AC0181E090E06F
:10053000B90197C08AE392E06AE171E089D48AE365
:1005400092E06091AD014AE050E0F9D38091AD01B5
:10055000853008F084E080937101E0C08AE392E086
:1005600060E271E075D48091AD019091AE0164E6D6
:1005700070E01FDB6093AD017093AE018AE392E0FF
:100580004AE050E0C1D38091AD019091AE01F2DD1F
:10059000C5C08AE392E065E271E05AD46091AD0192
:1005A0007091AE018091AF019091B001D0D92CEB48
:1005B00034E743E15DE37BDA97D9AB01BC014093BB
:1005C000AD015093AE016093AF017093B0018AE327
:1005D00092E022E030E00DD48091AD019091AE0127
:1005E000C0DD9CC08AE392E06FE271E031D48AE31F
:1005F00092E06091AD014AE050E0A1D38091AD015D
:1006000080938101863010F0289A88C0289886C08F
:100610008AE392E064E371E01BD46091AD017091D4
:10062000AE018091AF019091B00191D92CEB34E7EC
:1006300043E15DE33CDA58D99B016093AD017093CF
:10064000AE018093AF019093B0018AE392E0B901CB
:100650004AE050E0E0D36091AD017091AE0182E0DC
:1006600090E049DD5BC08AE392E069E371E0F0D39A
:100670006091AD017091AE018AE392E04AE050E0F2
:1006800043D36091AD01685D82E090E04FDD46C0EC
:100690008AE392E063E471E0DBD34091AD015091D5
:1006A000AE016091AF017091B0018AE392E02AE05F
:1006B00030E09FD36091AD017091AE018091AF01A8
:1006C0009091B001FDDD2AC08AE392E068E471E018
:1006D000BFD34091AD015091AE016091AF017091D7
:1006E000B0018AE392E02AE030E083D36091AD016B
:1006F0007091AE018091AF019091B00113DE0EC0F8
:100700008AE392E06DE471E0A3D36091AD01709152
:10071000AE018AE392E04AE050E0F6D28091AC016B
:100720008F5F8093AC0108950F931F938AE392E04B
:1007300040E056E960E070E0A9D002EA12E0C801AA
:1007400068E070E038D5C8016CEA73E09FD481E0BE
:1007500084B91F910F9108958091BA00803199F466
:100760006091B10187E0689FB00111246C5A7E4FFF
:1007700082EA92E047E050E0A5D48091B1018F5F1A
:1007800087708093B101089508951F920F920FB65C
:100790000F9211242F933F934F938F939F93EF9337
:1007A000FF934091C6002091F2013091F3012F5F39
:1007B0003F4F2F7330708091F4019091F50128170D
:1007C000390759F0E091F201F091F301EE54FE4F38
:1007D00040833093F3012093F201FF91EF919F91B9
:1007E0008F914F913F912F910F900FBE0F901F90BF
:1007F0001895E0914602F0914702E05CFF4F81912D
:10080000919120813181821B930B8F739070892B82
:1008100009F0BADF08951F920F920FB60F921124BC
:100820002F933F938F939F93EF93FF9320913602E3
:100830003091370280913802909139022817390798
:1008400031F48091C1008F7D8093C10014C0E0918C
:100850003802F0913902EA50FE4F2081809138022F
:100860009091390201968F73907090933902809322
:1008700038022093C600FF91EF919F918F913F9195
:100880002F910F900FBE0F901F901895AF92BF92AF
:10089000DF92EF92FF920F931F93CF93DF93EC01C0
:1008A0007A018B01DD24D39491E0A92EB12CEC893F
:1008B000FD89DD2069F0C5010E8C02C0880F991FEB
:1008C0000A94E2F7808360E874E88EE190E005C066
:1008D000108260E472E48FE090E0A801970190D963
:1008E00021503040404050405695479537952795C8
:1008F00080E12030380720F0DD2011F0DD24D7CF53
:10090000E889F9893083EA89FB892083EE89FF89A8
:10091000408121E030E0C9010A8C02C0880F991F94
:100920000A94E2F7482B4083EE89FF894081C90190
:100930000B8C02C0880F991F0A94E2F7482B408362
:10094000EE89FF894081C9010C8C02C0880F991F74
:100950000A94E2F7482B4083EE89FF8980810D8C51
:1009600002C0220F331F0A94E2F720952823208328
:10097000DF91CF911F910F91FF90EF90DF90BF908B
:10098000AF900895DC011C96ED91FC911D97E05C01
:10099000FF4F2191319180819181281B390B2F7359
:1009A0003070C9010895DC011C96ED91FC911D97F2
:1009B000E05CFF4F20813181E054F040DF01AE5B0D
:1009C000BF4F8D919C9111972817390719F42FEF7C
:1009D0003FEF07C08D919C91E80FF91F8081282F70
:1009E00030E0C9010895DC011C96ED91FC911D9742
:1009F000E05CFF4F20813181E054F040DF01AE5BCD
:100A0000BF4F8D919C9111972817390719F42FEF3B
:100A10003FEF10C08D919C911197E80FF91F208135
:100A20008D919C91119701968F73907011969C9364
:100A30008E9330E0C9010895FC0186859785DC011D
:100A4000A05CBF4FFC01EE5BFF4F2D913C911197D5
:100A50008081918128173907C1F70895CF93DF93DB
:100A6000EC01EE85FF85E05CFF4F20813181E05491
:100A7000F0402F5F3F4F2F733070DF01AE5BBF4FF1
:100A80008D919C91119728173907D1F3E05CFF4FA6
:100A900080819181E054F040E80FF91F6083EE857A
:100AA000FF85E05CFF4F31832083EE89FF89208141
:100AB00081E090E00D8C02C0880F991F0A94E2F744
:100AC000282B208381E090E0DF91CF910895109250
:100AD0003D0210923C0288EE93E0A0E0B0E08093EB
:100AE0003E0290933F02A0934002B093410280E9FE
:100AF00091E090933B0280933A0282EB91E09093D5
:100B000047028093460286EF91E0909349028093DA
:100B1000480285EC90E090934B0280934A0284EC6B
:100B200090E090934D0280934C0280EC90E0909383
:100B30004F0280934E0281EC90E09093510280939B
:100B4000500286EC90E0909353028093520284E02E
:100B50008093540283E08093550287E0809356028D
:100B600085E08093570281E0809358020895CF92E8
:100B7000DF92EF92FF920F931F93CF93DF937C014D
:100B80006B018A01C0E0D0E00FC0D6016D916D010C
:100B9000D701ED91FC910190F081E02DC7010995FD
:100BA000C80FD91F015010400115110571F7CE0172
:100BB000DF91CF911F910F91FF90EF90DF90CF9039
:100BC0000895EF92FF920F931F938C01DC01ED913A
:100BD000FC910190F081E02D6DE009957C01D80138
:100BE000ED91FC910190F081E02DC8016AE009953A
:100BF0009C012E0D3F1DC9011F910F91FF90EF9099
:100C00000895CF93DF93DB010D900020E9F7119752
:100C1000A61BB70BEC01E881F9810280F381E02D7E
:100C2000AD010995DF91CF9108954F925F927F9228
:100C30008F929F92AF92BF92CF92DF92EF92FF92EC
:100C40000F931F93DF93CF93CDB7DEB7A1970FB666
:100C5000F894DEBF0FBECDBF2C01742ECB01223025
:100C600008F42AE019A231E2C32ED12CCC0EDD1EED
:100C7000822E9924AA24BB24672D752FA5019401E7
:100C8000BFD779018A01C801B701A501940172D7C4
:100C9000472D461B0894C108D1084A3014F4405D22
:100CA00001C0495CF6014083E114F104010511051E
:100CB00021F07E2C5F2DC801DFCFC201B601A1DF7C
:100CC000A1960FB6F894DEBF0FBECDBFCF91DF91D6
:100CD0001F910F91FF90EF90DF90CF90BF90AF905A
:100CE0009F908F907F905F904F900895DC01211529
:100CF000310541F4ED91FC910190F081E02D642FDC
:100D00000995089592DF0895CF92DF92EF92FF92B6
:100D10000F931F936C017B019A0100E010E0B80172
:100D2000A701E4DF8C01C6014CDF080F191FC801C1
:100D30001F910F91FF90EF90DF90CF900895CF9289
:100D4000DF92EF92FF920F931F936C01E62E9A01B0
:100D5000FF2400E010E0B801A701C8DF8C01C60144
:100D600030DF080F191FC8011F910F91FF90EF90FE
:100D7000DF90CF900895CF92DF92EF92FF920F9382
:100D80001F93CF93DF93EC016A017B01211531059D
:100D900041F4E881F9810190F081E02D642F0995FB
:100DA0001DC02A303105C9F477FF16C0E881F981EA
:100DB0000190F081E02D6DE209958C0144275527C3
:100DC000BA014C195D096E097F09CE012AE02DDFB9
:100DD0009801280F391F03C02AE027DF9C01C901B1
:100DE000DF91CF911F910F91FF90EF90DF90CF9007
:100DF0000895EF92FF920F931F937C01BCDF8C014B
:100E0000C701DFDE9C01200F311FC9011F910F9127
:100E1000FF90EF900895CF92DF92EF92FF920F93A1
:100E20001F936C017B019A010027F7FC0095102F9E
:100E3000B801A701A0DF8C01C601C3DE080F191F8E
:100E4000C8011F910F91FF90EF90DF90CF90089510
:100E5000D8DE08957F928F929F92AF92BF92CF92E9
:100E6000DF92EF92FF920F931F93CF93DF934C018A
:100E70007A018B01722ECB01BA0120E030E040E014
:100E800050E0C6D487FD03C0C0E0D0E00EC0D4015E
:100E9000ED91FC910190F081E02DC4016DE2099586
:100EA000EC0117FB109517F9109520E030E040E0B9
:100EB0005FE3AA240AC0CA01B90120E030E040E2A1
:100EC00051E4AAD49B01AC01A394A714A0F3C801D8
:100ED000B7013AD45B016C010CD57B018C01C401D4
:100EE000B801A7012AE030E001DFC80FD91F772041
:100EF00031F0C40162E571E084DEC80FD91FC8017A
:100F0000B70123D59B01AC01C601B5011CD41FC09C
:100F100020E030E040E251E4CAD57B018C01E4D40A
:100F20005B016C01CC24B7FCC094DC2CC401B6017D
:100F3000A5012AE030E01FDFC80FD91FC601B501A7
:100F400006D59B01AC01C801B701FDD37A94772087
:100F5000F9F6CE01DF91CF911F910F91FF90EF90A5
:100F6000DF90CF90BF90AF909F908F907F9008952B
:100F7000EF92FF920F931F937C016CDF8C01C701EE
:100F800020DE080F191FC8011F910F91FF90EF90ED
:100F90000895EF92FF920F931F937C0132DE8C0134
:100FA000C7010FDE080F191FC8011F910F91FF9095
:100FB000EF900895CF93DF9354D1B6DBC9EFD3E020
:100FC00002DA2097E9F315DCFBCF20917A0230E0BA
:100FD00080917902281B3109C90108954091790255
:100FE00080917A02481718F02FEF3FEF0AC0E42FE4
:100FF000F0E0E75AFD4F8081282F30E04F5F4093AB
:101000007902C9010895E091790280917A02E81786
:1010100018F0EFEFFFEF06C0F0E0E75AFD4F8081D8
:10102000E82FF0E0CF0108950895AC012091A002CF
:101030003091A10221153105E1F090917902809162
:101040007A029817B0F090E008C0FA01EA0FFB1F8F
:101050008081A75ABD4F8C939F5FA92FB0E0A61740
:10106000B7079CF31092790260937A02CB01F901E1
:1010700009950895E0919E02F0919F02309729F022
:1010800010929B0210929C020995089570939F0202
:1010900060939E0208951092A5021092A40288EE19
:1010A00093E0A0E0B0E08093A6029093A702A09303
:1010B000A802B093A90280EA91E09093A3028093E2
:1010C000A2020895CF92DF92EF92FF920F931F93A7
:1010D000CF93DF937C016B018A0180919D0288236D
:1010E000A1F0C0E0D0E00DC0D701ED91FC91D60198
:1010F000AC0FBD1F0190F081E02DC7016C910995E7
:101100002196C017D10780F303C0CB01642FE8D02C
:10111000C801DF91CF911F910F91FF90EF90DF9069
:10112000CF900895DF93CF930F92CDB7DEB7FC0138
:10113000698380919D028823C9F080919C0280324E
:1011400038F081E090E09383828320E030E014C0A7
:1011500080919B02E82FF0E0E558FD4F9981908344
:101160008F5F80939B0280939C0204C0CE01019606
:1011700061E0B6D021E030E0C9010F90CF91DF915E
:1011800008951092790210927A0210929B021092A6
:101190009C025CD208950F931F938C01862F9CD0E4
:1011A0008AE398E0BDD085E198E0B5D0C801E9DFD9
:1011B0001F910F910895EFDF08951F920F920FB6C0
:1011C0000F9211242F933F934F935F936F937F93CD
:1011D0008F939F93AF93BF932091B2023091B3024C
:1011E0004091B4025091B5027091B602DA01C90182
:1011F0000296A11DB11D672F6A5F6D3730F06D57E4
:10120000DA01C9010396A11DB11D6093B602809356
:10121000B2029093B302A093B402B093B50280914E
:10122000AE029091AF02A091B002B091B1020196CE
:10123000A11DB11D8093AE029093AF02A093B002A6
:10124000B093B102BF91AF919F918F917F916F91B8
:101250005F914F913F912F910F900FBE0F901F9074
:101260001895789484B5826084BD84B5816084BD0E
:1012700085B5826085BD85B5816085BDEEE6F0E00F
:10128000808181608083E1E8F0E01082808182606B
:101290008083808181608083E0E8F0E080818160EC
:1012A0008083E1EBF0E0808184608083E0EBF0E01C
:1012B000808181608083EAE7F0E0808184608083C0
:1012C000808182608083808181608083808180686A
:1012D00080831092C1000895880F8093BA0008950A
:1012E000482F613210F081E008958091B702843078
:1012F00011F082E0089560930203A1EEB2E0842F22
:101300009C01F90102C081918D938E2F841B861759
:10131000D0F380E008959093BE028093BD020895BB
:101320009093BC028093BB0208951F920F920FB658
:101330000F9211242F933F934F935F936F937F935B
:101340008F939F93AF93BF93EF93FF938091B900D7
:1013500090E0887F90708036910509F4F2C0813664
:101360009105CCF58832910509F47BC0893291054D
:10137000B4F48031910509F46FC0813191053CF4DA
:10138000009709F447C1089709F04FC165C088313B
:10139000910509F466C0809709F047C182C0803486
:1013A000910509F4A4C08134910544F4803391057A
:1013B00009F482C0C89709F038C189C08035910509
:1013C00009F489C08835910509F496C088349105DF
:1013D00009F02BC1AEC08839910509F413C18939D0
:1013E0009105ECF48837910509F4ABC08937910574
:1013F0004CF48836910509F4A4C08037910509F0B2
:1014000014C19FC08838910509F4FCC0803991054A
:1014100009F49DC08038910509F007C198C0803B50
:10142000910509F4C6C0813B91054CF4803A9105C1
:1014300009F49FC0883A910509F0F7C0BAC0803C12
:10144000910509F4E3C0883C910509F4DFC0883BAD
:10145000910509F0EAC0C2C08091B8028093BB0038
:10146000CFC09091DF028091E002981768F49091CC
:10147000DF02E92FF0E0E154FD4F80818093BB0053
:101480009F5F9093DF02BCC08091B902882309F46A
:101490004BC085ED8093BC008091BC0084FDFCCFE7
:1014A000C2C080E28093240385ED8093BC008091CC
:1014B000BC0084FDFCCFB7C080E38093240385ED9E
:1014C0008093BC008091BC0084FDFCCFACC088E35D
:1014D000809324039BC08091DF029091BB00E82F92
:1014E000F0E0E154FD4F90838F5F8093DF02909195
:1014F000DF028091E00282C08091DF029091BB0008
:10150000E82FF0E0E154FD4F90838F5F8093DF027E
:101510008091B902882341F085ED8093BC008091D1
:10152000BC0084FDFCCF7FC081E08093BA0284EAD6
:101530006EC085ED8093BC008091BC0084FDFCCF23
:1015400072C083E08093B7021092230359C0809148
:101550002303803208F056C0809123039091BB0092
:10156000E82FF0E0ED5FFC4F90838F5F80932303C3
:1015700047C080912303803230F4E0912303F0E0F0
:10158000ED5FFC4F108285ED8093BC008091BC0024
:1015900084FDFCCF1092B70260912303E091BD025D
:1015A000F091BE0283E093E070E00995109223036E
:1015B0002DC084E08093B7021092010310920203C1
:1015C000E091BB02F091BC0209958091020388234F
:1015D00029F481E0809302031092E10290910103CB
:1015E000E92FF0E0EF51FD4F80818093BB009F5FBA
:1015F000909301039091010380910203981710F4D6
:1016000085EC01C085E88093BC000FC085EC809319
:10161000BC0009C01092240385ED8093BC0080912A
:10162000BC0084FDFCCF1092B702FF91EF91BF91F7
:10163000AF919F918F917F916F915F914F913F916A
:101640002F910F900FBE0F901F9018951092B70218
:1016500081E08093B9021092BA0282E161E03FD04A
:1016600083E161E03CD0E9EBF0E080818E7F808314
:1016700080818D7F808380E28093B80085E48093B1
:10168000BC000895833071F0843028F48130A1F0DB
:10169000823021F514C08630B1F08730D1F084302B
:1016A000E9F404C0809180008F7703C080918000AE
:1016B0008F7D80938000089584B58F7702C084B5B4
:1016C0008F7D84BD08958091B0008F778093B000A6
:1016D00008958091B0008F7D8093B0000895FF92AF
:1016E0000F931F93F62E482F50E0CA018E569F4F3E
:1016F000FC012491CA0182589F4FFC011491465964
:101700005F4FFA0104910023C1F0222311F0822FD0
:10171000B9DFE02FF0E0EE0FFF1FEA5AFF4FA5916F
:10172000B4919FB7F894FF2021F48C9110958123F8
:1017300002C08C91812B8C939FBF1F910F91FF90C2
:101740000895F894A0C25058BB27AA270ED075C19F
:1017500066D130F06BD120F031F49F3F11F41EF4CC
:101760005BC10EF4E095E7FB51C1E92F77D180F31F
:10177000BA17620773078407950718F071F49EF58E
:101780008FC10EF4E0950B2EBA2FA02D0B01B901DD
:1017900090010C01CA01A0011124FF27591B99F0E7
:1017A000593F50F4503E68F11A16F040A22F232FF3
:1017B000342F4427585FF3CF469537952795A79543
:1017C000F0405395C9F77EF41F16BA0B620B730BEA
:1017D000840BBAF09150A1F0FF0FBB1F661F771F5B
:1017E000881FC2F70EC0BA0F621F731F841F48F410
:1017F000879577956795B795F7959E3F08F0B3CF96
:101800009395880F08F09927EE0F9795879508957F
:10181000D9D008F481E008950CD00FC107D140F071
:10182000FED030F021F45F3F19F0F0C0511139C102
:10183000F3C014D198F39923C9F35523B1F3951B41
:10184000550BBB27AA2762177307840738F09F5FE1
:101850005F4F220F331F441FAA1FA9F333D00E2E50
:101860003AF0E0E830D091505040E695001CCAF7BD
:1018700029D0FE2F27D0660F771F881FBB1F261782
:1018800037074807AB07B0E809F0BB0B802DBF0155
:10189000FF2793585F4F2AF09E3F510568F0B6C06E
:1018A00000C15F3FECF3983EDCF386957795679532
:1018B000B795F7959F5FC9F7880F911D9695879506
:1018C00097F90895E1E0660F771F881FBB1F621725
:1018D00073078407BA0720F0621B730B840BBA0BE3
:1018E000EE1F88F7E095089504D06894B111D9C02F
:1018F0000895BCD088F09F5790F0B92F9927B75121
:10190000A0F0D1F0660F771F881F991F1AF0BA95C3
:10191000C9F712C0B13081F0C3D0B1E00895C0C0A2
:10192000672F782F8827B85F39F0B93FCCF38695B9
:1019300077956795B395D9F73EF490958095709516
:1019400061957F4F8F4F9F4F0895E89409C097FB93
:101950003EF490958095709561957F4F8F4F9F4F86
:101960009923A9F0F92F96E9BB279395F6958795CA
:1019700077956795B795F111F8CFFAF4BB0F11F48D
:1019800060FF1BC06F5F7F4F8F4F9F4F16C0882334
:1019900011F096E911C0772321F09EE8872F762F6A
:1019A00005C0662371F096E8862F70E060E02AF0AB
:1019B0009A95660F771F881FDAF7880F9695879597
:1019C00097F90895990F0008550FAA0BE0E8FEEF6C
:1019D00016161706E807F907C0F012161306E407F3
:1019E000F50798F0621B730B840B950B39F40A26EC
:1019F00061F0232B242B252B21F408950A2609F4CA
:101A0000A140A6958FEF811D811D089597F99F67CD
:101A100080E870E060E008959FEF80EC0895002476
:101A20000A941616170618060906089500240A9443
:101A300012161306140605060895092E0394000CC9
:101A400011F4882352F0BB0F40F4BF2B11F460FF58
:101A500004C06F5F7F4F8F4F9F4F089557FD905881
:101A6000440F551F59F05F3F71F04795880F97FB62
:101A7000991F61F09F3F79F087950895121613061C
:101A80001406551FF2CF4695F1DF08C0161617064B
:101A90001806991FF1CF8695710561050894089580
:101AA000E894BB2766277727CB0197F908950BD0D9
:101AB000C4CFB5DF28F0BADF18F0952309F0A6CF20
:101AC000ABCF1124EECFCADFA0F3959FD1F3950FD2
:101AD00050E0551F629FF001729FBB27F00DB11DB2
:101AE000639FAA27F00DB11DAA1F649F6627B00D42
:101AF000A11D661F829F2227B00DA11D621F739F2B
:101B0000B00DA11D621F839FA00D611D221F749F38
:101B10003327A00D611D231F849F600D211D822F7F
:101B2000762F6A2F11249F5750408AF0E1F08823C6
:101B30004AF0EE0FFF1FBB1F661F771F881F9150D3
:101B40005040A9F79E3F510570F060CFAACF5F3F8C
:101B5000ECF3983EDCF3869577956795B795F79506
:101B6000E7959F5FC1F7FE2B880F911D969587958E
:101B700097F90895629FD001739FF001829FE00D55
:101B8000F11D649FE00DF11D929FF00D839FF00DFC
:101B9000749FF00D659FF00D9927729FB00DE11DA8
:101BA000F91F639FB00DE11DF91FBD01CF01112485
:101BB0000895AA1BBB1B51E107C0AA1FBB1FA61794
:101BC000B70710F0A61BB70B881F991F5A95A9F7E6
:101BD00080959095BC01CD01089597FB092E0726AD
:101BE0000AD077FD04D0E5DF06D000201AF4709506
:101BF00061957F4F0895F6F7909581959F4F0895D1
:101C0000A1E21A2EAA1BBB1BFD010DC0AA1FBB1F00
:101C1000EE1FFF1FA217B307E407F50720F0A21B72
:101C2000B30BE40BF50B661F771F881F991F1A94DF
:101C300069F760957095809590959B01AC01BD0109
:101C4000CF01089597FB092E05260ED057FD04D02D
:101C5000D7DF0AD0001C38F4509540953095219577
:101C60003F4F4F4F5F4F0895F6F7909580957095D1
:101C700061957F4F8F4F9F4F0895EE0FFF1F059087
:0A1C8000F491E02D0994F894FFCFD1
:101C8A002A2A0074656D703A006261743A00616DC7
:101C9A00703A00746F74616C3A006675656C3A004C
:101CAA00616C743A0067707353706565643A0067D3
:101CBA0070733A006169723A007468726F74746C76
:101CCA00653A006C6F6E3A006C61743A0065727224
:101CDA003A002E0011AF002D00001112002C2C2EFC
:101CEA002512131801D42228131400000000281406
:101CFA001500FF01FE0115163C041D000016170011
:101D0A009906282817180000000000180000000093
:101D1A002E05B705C204F304D3041C050000000015
:0C1D2A0092086208E507EE0703081408A1
:00000001FF
