:1000000027C04BC04AC049C048C047C046C045C0D1
:1000100044C043C042C041C040C03FC03EC03DC0DC
:100020004CC33BC0D9C339C038C037C036C035C057
:100030006AC733C096C1A7C1C9C1EBC1FFC112C213
:100040002CC254C264C28EC2BBC2D6C2F104E7063F
:1000500011241FBECFEFD4E0DEBFCDBF11E0A0E082
:10006000B1E0EAECF6E102C005900D92AC39B107BF
:10007000D9F712E0ACE9B1E001C01D92A83FB10789
:10008000E1F710E0C0E5D0E003C02297FE0117DBE6
:10009000CC34D107D1F7F6D216CBB2CFFC019B01FD
:1000A000CB016AE070E0B8DA462FC90160E07AE07F
:1000B000B3DAE130F10519F0329751F405C04093FD
:1000C0007001609371010895409372016093730110
:1000D000089521E0853F920720F480936901909371
:1000E0006801089527E28F30920720F480936B0116
:1000F00090936A0108959C010797825E934030F4C3
:10010000822F825080938401309385010895009757
:1001100029F480E090E0A0E0B0E00FC00197BC01BE
:1001200080E090E02BE935E040E050E056DA28EE40
:1001300033E040E050E084DAC90189559F4F809355
:1001400086019093870108954F925F926F927F92FC
:100150008F929F92AF92BF92CF92DF92EF92FF92D7
:100160000F931F934C013B012A01FC01E080F180B9
:1001700002811381C801B70120E836E948E950E05F
:1001800081DA59016A01B901882777FD8095982F96
:1001900020E839E647E65FEF20DAE60EF71E081F93
:1001A000191FC801B70126E030E040E050E015DA41
:1001B0007B018C0120E432E44FE050E063DA84E616
:1001C00090E0AC01A49EC001A59E900DB49E900D40
:1001D0001124820F931FF30191838083B901882733
:1001E00077FD8095982F20EC3DEB40EF5FEFF5D940
:1001F0006E0D7F1D801F911FF401608371838283C8
:10020000938324E630E040E050E03CDAF2013183B1
:1002100020831F910F91FF90EF90DF90CF90BF90C0
:10022000AF909F908F907F906F905F904F900895C8
:10023000DF93CF93CDB7DEB728970FB6F894DEBF24
:100240000FBECDBF6D837E838F839887CE010596C9
:10025000BE016F5F7F4FAE014D5F5F4F75DF8B81DA
:100260009C8180936201892F990F990B8093610182
:1002700089819A8180936401892F990F990B8093CA
:10028000630128960FB6F894DEBF0FBECDBFCF91A5
:10029000DF910895DF93CF93CDB7DEB728970FB6E0
:1002A000F894DEBF0FBECDBF6D837E838F839887AA
:1002B000CE010596BE016F5F7F4FAE014D5F5F4F70
:1002C00043DF8B819C8180935B01892F990F990B70
:1002D00080935A0189819A8180935D01892F990FBA
:1002E000990B80935C0128960FB6F894DEBF0FBE81
:1002F000CDBFCF91DF9108951F93CF93DF93CDE9C9
:10030000D1E010E08FE292E0FED2892BD9F38FE2A8
:1003100092E024D31A3221F48A3211F480E007C02B
:100320008993182F81E0C13AD80761F781E0DF9106
:10033000CF911F910895E0DF882341F410929C0132
:100340008FE292E060E071E0E1D4089580919C0139
:10035000E82FF0E0EC30F10508F06AC1E65EFF4FEF
:1003600009948FE292E063E071E0ACD38FE292E017
:1003700060919D014AE050E0B1D480919D01885D7B
:1003800080936C0163C18FE292E069E071E09AD3DF
:1003900080919D0190919E019C0143E0220F331FAB
:1003A0004A95E1F7880F991F280F391F20939D0167
:1003B00030939E018FE292E0B9014AE050E077D499
:1003C00080919D0190919E0196DE40C18FE292E066
:1003D0006EE071E077D380919D0190919E019C0128
:1003E000A3E0220F331FAA95E1F7880F991F280F6A
:1003F000391F20939D0130939E018FE292E0B90155
:100400004AE050E054D480919D0190919E017FDE9E
:100410001DC18FE292E063E171E054D360919D01D0
:1004200070919E018FE292E04AE050E040D46091EA
:100430009D0170919E0181E090E092C08FE292E078
:100440006AE171E03FD38FE292E060919D014AE062
:1004500050E044D480919D01853008F084E0809381
:100460006F01F4C08FE292E060E271E02BD38091E3
:100470009D0190919E0164E670E0CED860939D014D
:1004800070939E018FE292E04AE050E010D4809198
:100490009D0190919E0126DED9C08FE292E065E237
:1004A00071E010D360919D0170919E0180919F0138
:1004B0009091A001A3D72CEB34E743E15DE32AD868
:1004C0006AD7AB01BC0140939D0150939E0160939C
:1004D0009F017093A0018FE292E022E030E01FD4F0
:1004E00080919D0190919E01F4DDB0C08FE292E079
:1004F0006FE271E0E7D28FE292E060919D014AE005
:1005000050E0ECD380919D0180937F019FC08FE2EA
:1005100092E064E371E0D6D260919D0170919E01FA
:1005200080919F019091A00169D72CEB34E743E1C2
:100530005DE3F0D730D79B0160939D0170939E01DE
:1005400080939F019093A0018FE292E0B9014AE06D
:1005500050E0EED360919D0170919E0182E090E0A9
:100560009DDD74C08FE292E069E371E0ABD26091EF
:100570009D0170919E018FE292E04AE050E097D396
:1005800060919D0170919E0180E090E035D720E060
:1005900038EF45E456E497D620E030E048EC52E4EA
:1005A000B9D7FED67695679580E090E025D720E014
:1005B00030E040E252E423D6F3D66093650146C0B2
:1005C0008FE292E063E471E07DD240919D01509111
:1005D0009E0160919F017091A0018FE292E02AE05C
:1005E00030E09DD360919D0170919E0180919F01AB
:1005F0009091A0011DDE2AC08FE292E068E471E0D4
:1006000061D240919D0150919E0160919F01709136
:10061000A0018FE292E02AE030E081D360919D0159
:1006200070919E0180919F019091A00133DE0EC0D8
:100630008FE292E06DE471E045D260919D0170918E
:100640009E018FE292E04AE050E031D380919C011C
:100650008F5F80939C0108950F931F938FE292E028
:1006600040E056E960E070E0E8D00BE812E0C80135
:1006700068E070E00AD4C80166E473E0A3D31F9178
:100680000F9108956ED0E8DF56DEFECF8091BA005C
:10069000803191F46091A10187E0689FB00111243D
:1006A0006E5A7E4F8BE892E047E0B5D38091A1016E
:1006B0008F5F87708093A10108951F920F920FB6EC
:1006C0000F9211242F933F934F935F936F937F93D8
:1006D0008F939F93AF93BF932091A6013091A70171
:1006E0004091A8015091A9017091AA01DA01C901B4
:1006F0000296A11DB11D672F6A5F6D3730F06D57EF
:10070000DA01C9010396A11DB11D6093AA0180936E
:10071000A6019093A701A093A801B093A90180918D
:10072000A2019091A301A091A401B091A50101960D
:10073000A11DB11D8093A2019093A301A093A401D8
:10074000B093A501BF91AF919F918F917F916F91D0
:100750005F914F913F912F910F900FBE0F901F907F
:100760001895789484B5826084BD84B5816084BD19
:1007700085B5826085BD85B5816085BDEEE6F0E01A
:10078000808181608083E1E8F0E010828081826076
:100790008083808181608083E0E8F0E080818160F7
:1007A0008083E1EBF0E0808184608083E0EBF0E027
:1007B000808181608083EAE7F0E0808184608083CB
:1007C0008081826080838081816080838081806875
:1007D00080831092C10008951F920F920FB60F925E
:1007E00011242F933F934F938F939F93EF93FF93F6
:1007F0004091C600E0912B02F0912C0231969F01AE
:100800002F773070319780912D0290912E0228170A
:10081000390739F0E555FE4F408330932C02209381
:100820002B02FF91EF919F918F914F913F912F91CB
:100830000F900FBE0F901F901895EF92FF920F939D
:100840001F938C019A01AB01DC011896ED91FC918C
:10085000199781E0E82EF12CC70152960C9002C046
:10086000880F991F0A94E2F7808360E874E88EE1AC
:1008700090E008D72150304040405040CA01B901B3
:1008800022E030E040E050E0FDD6D8011496ED9132
:10089000FC91159730831696ED91FC911797208364
:1008A0001A96ED91FC911B972081C7011E960C9022
:1008B0001E9702C0880F991F0A94E2F7282B208305
:1008C0001A96ED91FC911B972081C7011F960C9001
:1008D0001F9702C0880F991F0A94E2F7282B2083E4
:1008E0001A96ED91FC911B97808150960C9002C056
:1008F000EE0CFF1C0A94E2F78E2980831F910F9162
:10090000FF90EF900895DC011296ED91FC91139702
:10091000E058FF4F2191319180819181281B390B43
:100920002F773070C9010895DC011296ED91FC918A
:100930001397EE57FF4F2081318192918291E058B9
:10094000F0408217930719F42FEF3FEF05C0E20F35
:10095000F31F8081282F30E0C9010895DC01129631
:10096000ED91FC911397DF01AE57BF4F2D913C9154
:100970001197E058FF4F80819181E058F040821735
:10098000930719F42FEF3FEF0BC0E20FF31F8081A5
:100990002F5F3F4F2F7730702D933C93282F30E0FF
:1009A000C9010895DC011296ED91FC911397EE5761
:1009B000FF4F80819181929382930895FC01A085DD
:1009C000B18521898C9190E0022E02C09595879582
:1009D0000A94E2F780FFF6CF0484F585E02D60836A
:1009E00008958EE891E09093300280932F028BEA75
:1009F00091E0909332028093310285EC90E09093E5
:100A000034028093330284EC90E09093360280931A
:100A1000350280EC90E0909338028093370281ECAD
:100A200090E090933A028093390286EC90E09093A4
:100A30003C0280933B0284E080933D0283E08093FC
:100A40003E0287E080933F0285E08093400281E090
:100A50008093410208950F931F93CF93DF938C01EE
:100A6000EB0109C02196D801ED91FC910190F08134
:100A7000E02DC801099568816623A1F7DF91CF9128
:100A80001F910F910895EF92FF920F931F93CF93B1
:100A9000DF938C017B01EA010CC0D7016D917D01D0
:100AA000D801ED91FC910190F081E02DC8010995EC
:100AB0002197209791F7DF91CF911F910F91FF9090
:100AC000EF900895DC01ED91FC910280F381E02D1F
:100AD000099508952F923F924F925F926F927F9265
:100AE0008F929F92AF92BF92CF92DF92EF92FF923E
:100AF0000F931F93DF93CF93CDB7DEB7A0970FB6B9
:100B0000F894DEBF0FBECDBF1C016A017B01411509
:100B100051056105710541F440E350E060E070E08B
:100B200020E030E07BD053C0882499245401422E29
:100B300055246624772401E010E00C0F1D1F080DDA
:100B4000191DC701B601A30192017AD5F80160838E
:100B50000894811C911CA11CB11CC701B601A30102
:100B600092016ED5C901DA016C017D01C114D10475
:100B7000E104F10401F781E0E82EF12CEC0EFD1EFA
:100B8000E80CF91C3E010894611C711CD501C401DC
:100B90000197A109B1096C01C818D90815C0F6015F
:100BA000EE0DFF1D40814A3010F4405D01C0495CEC
:100BB000552747FD5095652F752FC10120E030E086
:100BC0002DD00894E108F1086E147F0441F7A09637
:100BD0000FB6F894DEBF0FBECDBFCF91DF911F914E
:100BE0000F91FF90EF90DF90CF90BF90AF909F90CC
:100BF0008F907F906F905F904F903F902F900895CF
:100C0000DC012115310541F4ED91FC910190F08159
:100C1000E02D642F099508955DDF0895EF92FF920E
:100C20000F931F93CF93DF93EC017A018B01211572
:100C3000310541F4E881F9810190F081E02D642FC4
:100C4000099519C02A303105A9F477FF0FC04DE28C
:100C500050E060E070E020E030E0E0DF10950095CB
:100C6000F094E094E11CF11C011D111DCE01B801AE
:100C7000A7012AE02FDFDF91CF911F910F91FF9005
:100C8000EF9008950F931F938C014DE050E060E0CA
:100C900070E020E030E0C2DFC8014AE050E060E0F0
:100CA00070E020E030E0BADF1F910F910895CF92FD
:100CB000DF92EF92FF920F931F938C019A016B01C9
:100CC000EE24FF24B701A6019BDFC801DBDF1F91E3
:100CD0000F91FF90EF90DF90CF900895CF92DF9229
:100CE000EF92FF920F931F938C019A01C62EDD2481
:100CF000EE24FF24B701A60183DFC801C3DF1F91E3
:100D00000F91FF90EF90DF90CF9008950F931F9376
:100D10008C01D8DEC801B6DF1F910F9108950F93A3
:100D20001F938C017BDFC801ADDF1F910F910895E8
:100D3000CF92DF92EF92FF920F931F938C016B0182
:100D40009A01EE24D7FCE094FE2CB701A60166DFE1
:100D5000C80198DF1F910F91FF90EF90DF90CF9027
:100D60000895AC012091890230918A022115310544
:100D7000E1F090916202809163029817B0F090E0E8
:100D800008C0FA01EA0FFB1F8081AE5BBD4F8C9358
:100D90009F5FA92FB0E0A617B7079CF310926202DD
:100DA00060936302CB01F90109950895E0918702F0
:100DB000F0918802309729F01092840210928502F7
:100DC00009950895709388026093870208950895A5
:100DD000DF93CF930F92CDB7DEB769838091860200
:100DE000882389F080918502803288F48091840282
:100DF000E82FF0E0EC59FD4F60838F5F8093840211
:100E00008093850204C0CE01019661E057D00F9017
:100E1000CF91DF910895EF92FF920F931F93CF939D
:100E2000DF937C01042F80918602882351F0EB012F
:100E300010E004C0C7016991CBDF1F5F1017D0F32A
:100E400003C0CB01642F3AD0DF91CF911F910F9156
:100E5000FF90EF9008951092620210926302109238
:100E600084021092850213D008950F931F938C0172
:100E7000862F20D086ED96E041D081EB96E039D0E8
:100E8000C801E9DF1F910F910895EFDF08951092D7
:100E90008C02589A599AE9EBF0E080818E7F80832A
:100EA00080818D7F808388E48093B80085E480937F
:100EB000BC000895880F8093BA000895482F6132CE
:100EC00010F081E0089580918C02843011F082E06E
:100ED00008956093D502A4EBB2E0842F9C01F90140
:100EE00002C081918D938E2F841B8617D0F380E0F2
:100EF00008959093910280939002089590938F02A9
:100F000080938E0208951F920F920FB60F921124B4
:100F10002F933F934F935F936F937F938F939F9301
:100F2000AF93BF93EF93FF938091B90090E0887FD8
:100F300090708036910509F4DCC081369105CCF5BE
:100F40008832910509F47BC089329105B4F480316F
:100F5000910509F46FC0813191053CF4009709F4C3
:100F600031C1089709F039C165C08831910509F48C
:100F700066C0809709F031C17DC08034910509F4C5
:100F80009FC08134910544F48033910509F47DC0FC
:100F9000C89709F022C184C08035910509F484C046
:100FA0008835910509F491C08834910509F015C17F
:100FB00098C08839910509F4FDC089399105ECF490
:100FC0008837910509F495C0893791054CF4883626
:100FD000910509F48EC08037910509F0FEC089C0E3
:100FE0008838910509F4E6C08039910509F487C075
:100FF0008038910509F0F1C082C0803B910509F469
:10100000B0C0813B91054CF4803A910509F489C048
:10101000883A910509F0E1C0A4C0803C910509F42B
:10102000CDC0883C910509F4C9C0883B910509F001
:10103000D4C0ACC080918D028093BB00B9C09091A8
:10104000B2028091B302981768F49091B202E92F2E
:10105000F0E0EE56FD4F80818093BB009F5F909340
:10106000B202A6C085ED8093BC008091BC0084FDD7
:10107000FCCFB1C080E28093F70285ED8093BC0085
:101080008091BC0084FDFCCFA6C080E38093F70272
:1010900085ED8093BC008091BC0084FDFCCF9BC09B
:1010A00088E38093F7028AC08091B2029091BB00DE
:1010B000E82FF0E0EE56FD4F90838F5F8093B202F1
:1010C0009091B2028091B30271C08091B20290916E
:1010D000BB00E82FF0E0EE56FD4F90838F5F8093CA
:1010E000B20285ED8093BC008091BC0084FDFCCFF2
:1010F00072C083E080938C021092F60259C08091F6
:10110000F602803208F056C08091F6029091BB0042
:10111000E82FF0E0EA52FD4F90838F5F8093F60254
:1011200047C08091F602803230F4E091F602F0E0A0
:10113000EA52FD4F108285ED8093BC008091BC0087
:1011400084FDFCCF10928C026091F602E091900237
:10115000F091910286ED92E070E009951092F6020E
:101160002DC084E080938C021092D4021092D5029C
:10117000E0918E02F0918F0209958091D50288232B
:1011800029F481E08093D5021092B4029091D402A8
:10119000E92FF0E0EC54FD4F80818093BB009F5F0E
:1011A0009093D4029091D4028091D502981710F4B4
:1011B00085EC01C085E88093BC000FC085EC80936E
:1011C000BC0009C01092F70285ED8093BC008091AD
:1011D000BC0084FDFCCF10928C02FF91EF91BF9177
:1011E000AF919F918F917F916F915F914F913F91BF
:1011F0002F910F900FBE0F901F9018955058BB273E
:10120000AA270ED04DC13ED130F043D120F031F4A9
:101210009F3F11F41EF433C10EF4E095E7FB29C1A2
:10122000E92F4FD180F3BA17620773078407950738
:1012300018F071F49EF567C10EF4E0950B2EBA2FED
:10124000A02D0B01B90190010C01CA01A0011124CC
:10125000FF27591B99F0593F50F4503E68F11A1678
:10126000F040A22F232F342F4427585FF3CF469509
:1012700037952795A795F0405395C9F77EF41F162B
:10128000BA0B620B730B840BBAF09150A1F0FF0FF5
:10129000BB1F661F771F881FC2F70EC0BA0F621FE1
:1012A000731F841F48F4879577956795B795F795D1
:1012B0009E3F08F0B3CF9395880F08F09927EE0F63
:1012C0009795879508950CD0EBC0E3D040F0DAD025
:1012D00030F021F45F3F19F0CCC0511115C1CFC0DF
:1012E000F0D098F39923C9F35523B1F3951B550B0F
:1012F000BB27AA2762177307840738F09F5F5F4FE9
:10130000220F331F441FAA1FA9F333D00E2E3AF029
:10131000E0E830D091505040E695001CCAF729D043
:10132000FE2F27D0660F771F881FBB1F2617370792
:101330004807AB07B0E809F0BB0B802DBF01FF27C2
:1013400093585F4F2AF09E3F510568F092C0DCC071
:101350005F3FECF3983EDCF3869577956795B795FC
:10136000F7959F5FC9F7880F911D9695879597F917
:101370000895E1E0660F771F881FBB1F6217730790
:101380008407BA0720F0621B730B840BBA0BEE1FA5
:1013900088F7E095089504D06894B111B5C0089518
:1013A00098D088F09F5790F0B92F9927B751A0F0A7
:1013B000D1F0660F771F881F991F1AF0BA95C9F7E9
:1013C00012C0B13081F09FD0B1E008959CC0672F6A
:1013D000782F8827B85F39F0B93FCCF38695779599
:1013E0006795B395D9F73EF4909580957095619582
:1013F0007F4F8F4F9F4F0895E89409C097FB3EF4AD
:1014000090958095709561957F4F8F4F9F4F992351
:10141000A9F0F92F96E9BB279395F69587957795CF
:101420006795B795F111F8CFFAF4BB0F11F460FF8F
:101430001BC06F5F7F4F8F4F9F4F16C0882311F0E7
:1014400096E911C0772321F09EE8872F762F05C0FB
:10145000662371F096E8862F70E060E02AF09A9596
:10146000660F771F881FDAF7880F9695879597F98B
:10147000089597F99F6780E870E060E008959FEF16
:1014800080EC089500240A9416161706180609061B
:10149000089500240A9412161306140605060895EA
:1014A000092E0394000C11F4882352F0BB0F40F472
:1014B000BF2B11F460FF04C06F5F7F4F8F4F9F4FB2
:1014C000089557FD9058440F551F59F05F3F71F034
:1014D0004795880F97FB991F61F09F3F79F087959B
:1014E0000895121613061406551FF2CF4695F1DF24
:1014F00008C0161617061806991FF1CF86957105B4
:10150000610508940895E894BB2766277727CB01E7
:1015100097F908950BD0C4CFB5DF28F0BADF18F0E3
:10152000952309F0A6CFABCF1124EECFCADFA0F3ED
:10153000959FD1F3950F50E0551F629FF001729F68
:10154000BB27F00DB11D639FAA27F00DB11DAA1F87
:10155000649F6627B00DA11D661F829F2227B00DD4
:10156000A11D621F739FB00DA11D621F839FA00D5F
:10157000611D221F749F3327A00D611D231F849FAF
:10158000600D211D822F762F6A2F11249F57504006
:101590008AF0E1F088234AF0EE0FFF1FBB1F661FA1
:1015A000771F881F91505040A9F79E3F510570F05A
:1015B00060CFAACF5F3FECF3983EDCF3869577953A
:1015C0006795B795F795E7959F5FC1F7FE2B880F55
:1015D000911D9695879597F90895629FD001739F05
:1015E000F001829FE00DF11D649FE00DF11D929FBF
:1015F000F00D839FF00D749FF00D659FF00D9927FE
:10160000729FB00DE11DF91F639FB00DE11DF91F21
:10161000BD01CF0111240895AA1BBB1B51E107C0D6
:10162000AA1FBB1FA617B70710F0A61BB70B881F72
:10163000991F5A95A9F780959095BC01CD01089501
:10164000A1E21A2EAA1BBB1BFD010DC0AA1FBB1FC6
:10165000EE1FFF1FA217B307E407F50720F0A21B38
:10166000B30BE40BF50B661F771F881F991F1A94A5
:1016700069F760957095809590959B01AC01BD01CF
:10168000CF01089597FB092E05260ED057FD04D0F3
:10169000D7DF0AD0001C38F450954095309521953D
:1016A0003F4F4F4F5F4F0895F6F790958095709597
:1016B00061957F4F8F4F9F4F0895EE0FFF1F05904D
:0A16C000F491E02D0994F894FFCF97
:1016CA002A2A0074656D703A006261743A00616D8D
:1016DA00703A00746F74616C3A006675656C3A0012
:1016EA00616C743A0067707353706565643A006799
:1016FA0070733A006169723A007468726F74746C3C
:10170A00653A006C6F6E3A006C61743A00657272E9
:10171A003A0011AF002D00001112002C2C2E2512B8
:10172A00131801D4222813140000000028141500ED
:10173A00FF01FE0115163C041D000016170099064C
:10174A002828171800000000001800000000DE0416
:0C175A002B0543058304AE049404D20464
:00000001FF
