:1000000027C04BC04AC049C048C047C046C045C0D1
:1000100044C043C042C041C040C03FC03EC03DC0DC
:100020006DC33BC0FAC339C038C037C036C035C015
:1000300012C833C096C1B0C1DBC106C233C246C2CA
:1000400060C288C29DC2C7C2DAC2F5C212058F075C
:1000500011241FBECFEFD4E0DEBFCDBF11E0A0E082
:10006000B1E0E0E9F8E102C005900D92AE39B107C8
:10007000D9F712E0AEE9B1E001C01D92AA3FB10785
:10008000E1F710E0C0E5D0E003C02297FE01FADB03
:10009000CC34D107D1F717D3F9CBB2CFFC019B01F8
:1000A000CB016AE070E088DB462FC90160E07AE0AE
:1000B00083DBE130F10519F0329751F405C040932C
:1000C0007201609373010895409374016093750108
:1000D000089521E0853F920720F480936B0190936F
:1000E0006A01089527E28F30920720F480936D0112
:1000F00090936C0108959C010797825E934030F4C1
:10010000822F825080938601309387010895009753
:1001100029F480E090E0A0E0B0E00FC00197BC01BE
:1001200080E090E02BE935E040E050E026DB28EE6F
:1001300033E040E050E067DBC90189559F4F809371
:1001400088019093890108954F925F926F927F92F8
:100150008F929F92AF92BF92CF92DF92EF92FF92D7
:100160000F931F934C013B012A01FC01E080F180B9
:1001700002811381C801B70120E836E948E950E05F
:1001800064DB59016A01B901882777FD8095982FB2
:1001900020E839E647E65FEFF0DAE60EF71E081FC3
:1001A000191FC801B70126E030E040E050E0E5DA71
:1001B0007B018C0120E432E44FE050E046DB84E632
:1001C00090E0AC01A49EC001A59E900DB49E900D40
:1001D0001124820F931FF30191838083B901882733
:1001E00077FD8095982F20EC3DEB40EF5FEFC5DA6F
:1001F0006E0D7F1D801F911FF401608371838283C8
:10020000938324E630E040E050E01FDBF2013183CD
:1002100020831F910F91FF90EF90DF90CF90BF90C0
:10022000AF909F908F907F906F905F904F900895C8
:10023000DF93CF93CDB7DEB728970FB6F894DEBF24
:100240000FBECDBF6D837E838F839887CE010596C9
:10025000BE016F5F7F4FAE014D5F5F4F75DF8B81DA
:100260009C8180936401892F990F990B809363017E
:1002700089819A8180936601892F990F990B8093C8
:10028000650128960FB6F894DEBF0FBECDBFCF91A3
:10029000DF910895DF93CF93CDB7DEB728970FB6E0
:1002A000F894DEBF0FBECDBF6D837E838F839887AA
:1002B000CE010596BE016F5F7F4FAE014D5F5F4F70
:1002C00043DF8B819C8180935D01892F990F990B6E
:1002D00080935C0189819A8180935F01892F990FB6
:1002E000990B80935E0128960FB6F894DEBF0FBE7F
:1002F000CDBFCF91DF9108951F93CF93DF93CFE9C7
:10030000D1E010E081E392E01FD3892BD9F381E3A0
:1003100092E045D31A3221F48A3211F480E007C00A
:100320008993182F81E0C33AD80761F781E0DF9104
:10033000CF911F910895E0DF882341F410929E0130
:1003400081E392E060E071E002D5089580919E0122
:10035000E82FF0E0EC30F10508F089C1E65EFF4FD0
:10036000099481E392E063E071E0CDD380919F0135
:100370009091A0016AE070E033DA60939F0170937E
:10038000A00181E392E04AE050E0F3D480919F0124
:10039000885D80936E0179C181E392E069E071E04C
:1003A000B2D340919F015091A0016091A101709141
:1003B000A20181E392E02AE030E072D560919F01D2
:1003C0007091A0018091A1019091A20120E030E004
:1003D00040E251E46FD960939F017093A001809334
:1003E000A1019093A20188D8DC01CB0184DE4DC12C
:1003F00081E392E06EE071E086D340919F015091DD
:10040000A0016091A1017091A20181E392E02AE034
:1004100030E046D560919F017091A0018091A101CB
:100420009091A20120E030E048EC52E443D960937F
:100430009F017093A0018093A1019093A2015CD8C9
:10044000DC01CB0164DE21C181E392E063E171E074
:100450005AD340919F015091A0016091A1017091E8
:10046000A20181E392E02AE030E01AD560919F0179
:100470007091A0018091A1019091A20120E030E053
:1004800048EC52E417D960939F017093A0018093C8
:10049000A1019093A20130D89B01AC0181E090E0D2
:1004A000B90197C081E392E06AE171E02CD381E366
:1004B00092E060919F014AE050E031D480919F0129
:1004C000853008F084E080937101DFC081E392E021
:1004D00060E271E018D380919F019091A00164E6E1
:1004E00070E06AD960939F017093A00181E392E06C
:1004F0004AE050E0FDD380919F019091A001F2DD90
:10050000C4C081E392E065E271E0FDD260919F0199
:100510007091A0018091A1019091A2011BD82CEBB8
:1005200034E743E15DE3C6D8E2D7AB01BC014093B9
:100530009F015093A0016093A1017093A20181E3F8
:1005400092E022E030E00CD480919F019091A001D4
:10055000C0DD9BC081E392E06FE271E0D4D281E321
:1005600092E060919F014AE050E0D9D380919F01D1
:1005700080938101863010F0289A87C0289885C022
:1005800081E392E064E371E0BED260919F017091DB
:10059000A0018091A1019091A201DCD72CEB34E75E
:1005A00043E15DE387D8A3D79B0160939F017093DC
:1005B000A0018093A1019093A20181E392E0B9018F
:1005C0004AE050E0D6D360919F017091A00182E093
:1005D00090E064DD5AC081E392E069E371E093D278
:1005E00060919F017091A00181E392E04AE050E0A8
:1005F0007FD380919F01885D8093670146C081E32E
:1006000092E063E471E07FD240919F015091A0019C
:100610006091A1017091A20181E392E02AE030E0B3
:100620009FD360919F017091A0018091A101909151
:10063000A201FEDD2AC081E392E068E471E063D2AA
:1006400040919F015091A0016091A1017091A20180
:1006500081E392E02AE030E083D360919F017091C2
:10066000A0018091A1019091A20114DE0EC081E34E
:1006700092E06DE471E047D260919F017091A0011A
:1006800081E392E04AE050E033D380919E018F5F96
:1006900080939E0108950F931F9381E392E040E0C1
:1006A00056E960E070E0EAD00DE812E0C80168E0C9
:1006B00070E093D4C80167E673E02CD481E084B97C
:1006C0001F910F9108956ED0E6DF35DEFECF809149
:1006D000BA00803191F46091A30187E0689FB00176
:1006E00011246C5A7E4F8DE892E047E03CD4809113
:1006F000A3018F5F87708093A30108951F920F92CB
:100700000FB60F9211242F933F934F935F936F93E4
:100710007F938F939F93AF93BF932091A8013091C4
:10072000A9014091AA015091AB017091AC01DA018D
:10073000C9010296A11DB11D672F6A5F6D3730F0A8
:100740006D57DA01C9010396A11DB11D6093AC017B
:100750008093A8019093A901A093AA01B093AB0143
:100760008091A4019091A501A091A601B091A7014B
:100770000196A11DB11D8093A4019093A501A093A2
:10078000A601B093A701BF91AF919F918F917F91E7
:100790006F915F914F913F912F910F900FBE0F90EE
:1007A0001F901895789484B5826084BD84B581606B
:1007B00084BD85B5826085BD85B5816085BDEEE669
:1007C000F0E0808181608083E1E8F0E01082808148
:1007D00082608083808181608083E0E8F0E08081B6
:1007E00081608083E1EBF0E0808184608083E0EBD6
:1007F000F0E0808181608083EAE7F0E080818460BE
:100800008083808182608083808181608083808119
:10081000806880831092C10008951F920F920FB6D6
:100820000F9211242F933F934F938F939F93EF93A6
:10083000FF934091C600E0912D02F0912E02319677
:100840009F012F773070319780912F029091300265
:100850002817390739F0E355FE4F408330932E02B5
:1008600020932D02FF91EF919F918F914F913F9196
:100870002F910F900FBE0F901F901895EF92FF923F
:100880000F931F938C019A01AB01DC011896ED9137
:10089000FC91199781E0E82EF12CC70152960C903B
:1008A00002C0880F991F0A94E2F7808360E874E819
:1008B0008EE190E0CAD72150304040405040CA01FC
:1008C000B90122E030E040E050E0BFD7D8011496F3
:1008D000ED91FC91159730831696ED91FC91179749
:1008E00020831A96ED91FC911B972081C7011E96DB
:1008F0000C901E9702C0880F991F0A94E2F7282BCC
:1009000020831A96ED91FC911B972081C7011F96B9
:100910000C901F9702C0880F991F0A94E2F7282BAA
:1009200020831A96ED91FC911B97808150960C9034
:1009300002C0EE0CFF1C0A94E2F78E2980831F91FF
:100940000F91FF90EF900895DC011296ED91FC91CC
:100950001397E058FF4F2191319180819181281B9D
:10096000390B2F773070C9010895DC011296ED9193
:10097000FC911397EE57FF4F208131819291829124
:10098000E058F0408217930719F42FEF3FEF05C0AE
:10099000E20FF31F8081282F30E0C9010895DC01A8
:1009A0001296ED91FC911397DF01AE57BF4F2D9139
:1009B0003C911197E058FF4F80819181E058F040C1
:1009C0008217930719F42FEF3FEF0BC0E20FF31FCD
:1009D00080812F5F3F4F2F7730702D933C93282FCE
:1009E00030E0C9010895DC011296ED91FC91139756
:1009F000EE57FF4F80819181929382930895FC017D
:100A0000A085B18521898C9190E0022E02C0959538
:100A100087950A94E2F780FFF6CF0484F585E02DF0
:100A20006083089580E991E09093320280933102CF
:100A30008DEA91E0909334028093330285EC90E04C
:100A4000909336028093350284EC90E090933802C4
:100A50008093370280EC90E090933A0280933902C1
:100A600081EC90E090933C0280933B0286EC90E016
:100A700090933E0280933D0284E080933F0283E0A6
:100A80008093400287E08093410285E08093420298
:100A900081E08093430208950F931F93CF93DF93D8
:100AA0008C01EB0109C02196D801ED91FC910190D8
:100AB000F081E02DC801099568816623A1F7DF91D7
:100AC000CF911F910F910895EF92FF920F931F9373
:100AD000CF93DF938C017B01EA010CC0D7016D91AC
:100AE0007D01D801ED91FC910190F081E02DC801CC
:100AF00009952197209791F7DF91CF911F910F9141
:100B0000FF90EF900895DC01ED91FC910280F3815C
:100B1000E02D099508952F923F924F925F926F9228
:100B20007F928F929F92AF92BF92CF92DF92EF927D
:100B3000FF920F931F93DF93CF93CDB7DEB7A097AC
:100B40000FB6F894DEBF0FBECDBF1C016A017B015A
:100B5000411551056105710541F440E350E060E045
:100B600070E020E030E07BD053C088249924540109
:100B7000422E55246624772401E010E00C0F1D1F3F
:100B8000080D191DC701B601A30192013CD6F80159
:100B900060830894811C911CA11CB11CC701B60183
:100BA000A301920130D6C901DA016C017D01C114A3
:100BB000D104E104F10401F781E0E82EF12CEC0E00
:100BC000FD1EE80CF91C3E010894611C711CD50146
:100BD000C4010197A109B1096C01C818D90815C051
:100BE000F601EE0DFF1D40814A3010F4405D01C05A
:100BF000495C552747FD5095652F752FC10120E0B1
:100C000030E02DD00894E108F1086E147F0441F71C
:100C1000A0960FB6F894DEBF0FBECDBFCF91DF9187
:100C20001F910F91FF90EF90DF90CF90BF90AF900A
:100C30009F908F907F906F905F904F903F902F90FC
:100C40000895DC012115310541F4ED91FC910190ED
:100C5000F081E02D642F099508955DDF0895EF92EE
:100C6000FF920F931F93CF93DF93EC017A018B01D7
:100C70002115310541F4E881F9810190F081E02DE1
:100C8000642F099519C02A303105A9F477FF0FC0E8
:100C90004DE250E060E070E020E030E0E0DF1095F1
:100CA0000095F094E094E11CF11C011D111DCE0192
:100CB000B801A7012AE02FDFDF91CF911F910F919B
:100CC000FF90EF9008950F931F938C014DE050E03B
:100CD00060E070E020E030E0C2DFC8014AE050E0B0
:100CE00060E070E020E030E0BADF1F910F910895DE
:100CF000CF92DF92EF92FF920F931F938C019A0194
:100D00006B01EE24FF24B701A6019BDFC801DBDFE6
:100D10001F910F91FF90EF90DF90CF900895CF92A9
:100D2000DF92EF92FF920F931F938C019A01C62ED0
:100D3000DD24EE24FF24B701A60183DFC801C3DF51
:100D40001F910F91FF90EF90DF90CF9008950F9338
:100D50001F938C01D8DEC801B6DF1F910F91089553
:100D60000F931F938C017BDFC801ADDF1F910F91A3
:100D70000895CF92DF92EF92FF920F931F938C0111
:100D80006B019A01EE24D7FCE094FE2CB701A6017A
:100D900066DFC80198DF1F910F91FF90EF90DF9001
:100DA000CF9008959F92AF92BF92CF92DF92EF9231
:100DB000FF920F931F93CF93DF93EC017A018B0186
:100DC000922ECB01BA0120E030E040E050E023D386
:100DD000882364F4CE014DE250E060E070E020E052
:100DE00030E03DDF17FB109517F9109520E030E05B
:100DF00040E05FE3AA240AC0CA01B90120E030E064
:100E000040E251E40CD39B01AC01A394A914A0F3DC
:100E1000C801B7019CD25B016C016ED37B018C01D0
:100E2000CE01B801A7012AE030E00BDF992021F0C4
:100E3000CE0162E571E067DEC801B70189D39B018D
:100E4000AC01C601B50182D21DC020E030E040E215
:100E500051E430D47B018C014AD35B016C01CC247A
:100E6000B7FCC094DC2CCE01B601A5012AE030E02D
:100E7000F6DEC601B5016ED39B01AC01C801B70116
:100E800065D29A94992009F7DF91CF911F910F9124
:100E9000FF90EF90DF90CF90BF90AF909F9008951C
:100EA0000F931F938C017EDFC8010DDF1F910F91FF
:100EB0000895AC0120918B0230918C0221153105EF
:100EC000E1F090916402809165029817B0F090E093
:100ED00008C0FA01EA0FFB1F8081AC5BBD4F8C9309
:100EE0009F5FA92FB0E0A617B7079CF3109264028A
:100EF00060936502CB01F90109950895E09189029B
:100F0000F0918A02309729F010928602109287029F
:100F10000995089570938A0260938902089508954F
:100F2000DF93CF930F92CDB7DEB7698380918802AC
:100F3000882389F080918702803288F4809186022C
:100F4000E82FF0E0EA59FD4F60838F5F80938602BF
:100F50008093870204C0CE01019661E057D00F90C4
:100F6000CF91DF910895EF92FF920F931F93CF934C
:100F7000DF937C01042F80918802882351F0EB01DC
:100F800010E004C0C7016991CBDF1F5F1017D0F3D9
:100F900003C0CB01642F3AD0DF91CF911F910F9105
:100FA000FF90EF90089510926402109265021092E3
:100FB00086021092870213D008950F931F938C011D
:100FC000862F20D08EE797E041D089E597E039D091
:100FD000C801E9DF1F910F910895EFDF0895109286
:100FE0008E02589A599AE9EBF0E080818E7F8083D7
:100FF00080818D7F808388E48093B80085E480932E
:10100000BC000895880F8093BA000895482F61327C
:1010100010F081E0089580918E02843011F082E01A
:1010200008956093D702A6EBB2E0842F9C01F901EA
:1010300002C081918D938E2F841B8617D0F380E0A0
:101040000895909393028093920208959093910251
:101050008093900208951F920F920FB60F92112461
:101060002F933F934F935F936F937F938F939F93B0
:10107000AF93BF93EF93FF938091B90090E0887F87
:1010800090708036910509F4DCC081369105CCF56D
:101090008832910509F47BC089329105B4F480311E
:1010A000910509F46FC0813191053CF4009709F472
:1010B00031C1089709F039C165C08831910509F43B
:1010C00066C0809709F031C17DC08034910509F474
:1010D0009FC08134910544F48033910509F47DC0AB
:1010E000C89709F022C184C08035910509F484C0F5
:1010F0008835910509F491C08834910509F015C12E
:1011000098C08839910509F4FDC089399105ECF43E
:101110008837910509F495C0893791054CF48836D4
:10112000910509F48EC08037910509F0FEC089C091
:101130008838910509F4E6C08039910509F487C023
:101140008038910509F0F1C082C0803B910509F417
:10115000B0C0813B91054CF4803A910509F489C0F7
:10116000883A910509F0E1C0A4C0803C910509F4DA
:10117000CDC0883C910509F4C9C0883B910509F0B0
:10118000D4C0ACC080918F028093BB00B9C0909155
:10119000B4028091B502981768F49091B402E92FD7
:1011A000F0E0EC56FD4F80818093BB009F5F9093F1
:1011B000B402A6C085ED8093BC008091BC0084FD84
:1011C000FCCFB1C080E28093F90285ED8093BC0032
:1011D0008091BC0084FDFCCFA6C080E38093F9021F
:1011E00085ED8093BC008091BC0084FDFCCF9BC04A
:1011F00088E38093F9028AC08091B4029091BB0089
:10120000E82FF0E0EC56FD4F90838F5F8093B4029F
:101210009091B4028091B50271C08091B402909116
:10122000BB00E82FF0E0EC56FD4F90838F5F80937A
:10123000B40285ED8093BC008091BC0084FDFCCF9E
:1012400072C083E080938E021092F80259C08091A0
:10125000F802803208F056C08091F8029091BB00ED
:10126000E82FF0E0E852FD4F90838F5F8093F80203
:1012700047C08091F802803230F4E091F802F0E04B
:10128000E852FD4F108285ED8093BC008091BC0038
:1012900084FDFCCF10928E026091F802E0919202E0
:1012A000F091930288ED92E070E009951092F802B7
:1012B0002DC084E080938E021092D6021092D70245
:1012C000E0919002F091910209958091D7028823D4
:1012D00029F481E08093D7021092B6029091D60251
:1012E000E92FF0E0EA54FD4F80818093BB009F5FBF
:1012F0009093D6029091D6028091D702981710F45D
:1013000085EC01C085E88093BC000FC085EC80931C
:10131000BC0009C01092F90285ED8093BC00809159
:10132000BC0084FDFCCF10928E02FF91EF91BF9123
:10133000AF919F918F917F916F915F914F913F916D
:101340002F910F900FBE0F901F9018955058BB27EC
:10135000AA270ED075C166D130F06BD120F031F4E0
:101360009F3F11F41EF45BC10EF4E095E7FB51C101
:10137000E92F77D180F3BA176207730784079507BF
:1013800018F071F49EF58FC10EF4E0950B2EBA2F74
:10139000A02D0B01B90190010C01CA01A00111247B
:1013A000FF27591B99F0593F50F4503E68F11A1627
:1013B000F040A22F232F342F4427585FF3CF4695B8
:1013C00037952795A795F0405395C9F77EF41F16DA
:1013D000BA0B620B730B840BBAF09150A1F0FF0FA4
:1013E000BB1F661F771F881FC2F70EC0BA0F621F90
:1013F000731F841F48F4879577956795B795F79580
:101400009E3F08F0B3CF9395880F08F09927EE0F11
:10141000979587950895D9D008F481E008950CD068
:101420000FC107D140F0FED030F021F45F3F19F03A
:10143000F0C0511139C1F3C014D198F39923C9F305
:101440005523B1F3951B550BBB27AA2762177307CA
:10145000840738F09F5F5F4F220F331F441FAA1F7E
:10146000A9F333D00E2E3AF0E0E830D0915050403E
:10147000E695001CCAF729D0FE2F27D0660F771FEC
:10148000881FBB1F261737074807AB07B0E809F0CE
:10149000BB0B802DBF01FF2793585F4F2AF09E3F63
:1014A000510568F0B6C000C15F3FECF3983EDCF335
:1014B000869577956795B795F7959F5FC9F7880FDC
:1014C000911D9695879597F90895E1E0660F771F2E
:1014D000881FBB1F621773078407BA0720F0621BBF
:1014E000730B840BBA0BEE1F88F7E095089504D0B8
:1014F0006894B111D9C00895BCD088F09F5790F07E
:10150000B92F9927B751A0F0D1F0660F771F881F28
:10151000991F1AF0BA95C9F712C0B13081F0C3D043
:10152000B1E00895C0C0672F782F8827B85F39F0E1
:10153000B93FCCF3869577956795B395D9F73EF487
:1015400090958095709561957F4F8F4F9F4F08952F
:10155000E89409C097FB3EF490958095709561954D
:101560007F4F8F4F9F4F9923A9F0F92F96E9BB2703
:101570009395F695879577956795B795F111F8CF7F
:10158000FAF4BB0F11F460FF1BC06F5F7F4F8F4FEA
:101590009F4F16C0882311F096E911C0772321F0E0
:1015A0009EE8872F762F05C0662371F096E8862F78
:1015B00070E060E02AF09A95660F771F881FDAF7CF
:1015C000880F9695879597F90895990F0008550FFC
:1015D000AA0BE0E8FEEF16161706E807F907C0F0B9
:1015E00012161306E407F50798F0621B730B840BC1
:1015F000950B39F40A2661F0232B242B252B21F49B
:1016000008950A2609F4A140A6958FEF811D811D3A
:10161000089597F99F6780E870E060E008959FEF74
:1016200080EC089500240A94161617061806090679
:10163000089500240A941216130614060506089548
:10164000092E0394000C11F4882352F0BB0F40F4D0
:10165000BF2B11F460FF04C06F5F7F4F8F4F9F4F10
:10166000089557FD9058440F551F59F05F3F71F092
:101670004795880F97FB991F61F09F3F79F08795F9
:101680000895121613061406551FF2CF4695F1DF82
:1016900008C0161617061806991FF1CF8695710512
:1016A000610508940895E894BB2766277727CB0146
:1016B00097F908950BD0C4CFB5DF28F0BADF18F042
:1016C000952309F0A6CFABCF1124EECFCADFA0F34C
:1016D000959FD1F3950F50E0551F629FF001729FC7
:1016E000BB27F00DB11D639FAA27F00DB11DAA1FE6
:1016F000649F6627B00DA11D661F829F2227B00D33
:10170000A11D621F739FB00DA11D621F839FA00DBD
:10171000611D221F749F3327A00D611D231F849F0D
:10172000600D211D822F762F6A2F11249F57504064
:101730008AF0E1F088234AF0EE0FFF1FBB1F661FFF
:10174000771F881F91505040A9F79E3F510570F0B8
:1017500060CFAACF5F3FECF3983EDCF38695779598
:101760006795B795F795E7959F5FC1F7FE2B880FB3
:10177000911D9695879597F90895629FD001739F63
:10178000F001829FE00DF11D649FE00DF11D929F1D
:10179000F00D839FF00D749FF00D659FF00D99275C
:1017A000729FB00DE11DF91F639FB00DE11DF91F80
:1017B000BD01CF0111240895AA1BBB1B51E107C035
:1017C000AA1FBB1FA617B70710F0A61BB70B881FD1
:1017D000991F5A95A9F780959095BC01CD01089560
:1017E00097FB092E07260AD077FD04D0E5DF06D047
:1017F00000201AF4709561957F4F0895F6F7909543
:1018000081959F4F0895A1E21A2EAA1BBB1BFD01D3
:101810000DC0AA1FBB1FEE1FFF1FA217B307E407CF
:10182000F50720F0A21BB30BE40BF50B661F771F27
:10183000881F991F1A9469F7609570958095909507
:101840009B01AC01BD01CF01089597FB092E052630
:101850000ED057FD04D0D7DF0AD0001C38F45095C5
:101860004095309521953F4F4F4F5F4F0895F6F7C4
:1018700090958095709561957F4F8F4F9F4F0895FC
:10188000EE0FFF1F0590F491E02D0994F894FFCF1F
:101890002A2A0074656D703A006261743A00616DC5
:1018A000703A00746F74616C3A006675656C3A004A
:1018B000616C743A0067707353706565643A0067D1
:1018C00070733A006169723A007468726F74746C74
:1018D000653A006C6F6E3A006C61743A0065727222
:1018E0003A002E0011AF002D00001112002C2C2EFA
:1018F0002512131801D42228131400000000281404
:101900001500FF01FE0115163C041D00001617000E
:101910009906282817180000000000180000000091
:0E192000FF044C056405A404CF04B504F304D1
:00000001FF
