:1000000025C049C048C047C046C045C044C043C0E1
:1000100042C041C040C03FC03EC03DC03CC03BC0EC
:10002000DEC1ABC06BC237C036C035C034C033C0D0
:10003000C2C531C0E4C0F6C003C110C11DC130C18A
:100040003DC14AC157C166C183033F0511241FBE8C
:10005000CFEFD4E0DEBFCDBF11E0A0E0B1E0E0E73C
:10006000F3E102C005900D92AC39B107D9F712E067
:10007000ACE9B1E001C01D92A63FB107E1F710E085
:10008000CCE4D0E003C02297FE016CD9C834D1077C
:10009000D1F770D06BC9B4CFFC019B01CB016AE0F2
:1000A00070E00DD9462FC90160E07AE008D9E1304F
:1000B000F10519F0329751F405C040937001609337
:1000C000710108954093720160937301089521E0D6
:1000D000853F920720F48093690190936801089509
:1000E00027E28F30920720F480936B0190936A018E
:1000F00008959C010797825E934030F4822F8250CE
:1001000080938401309385010895009729F480E05D
:1001100090E0A0E0B0E00FC00197BC0180E090E06B
:100120002BE935E040E050E0ABD828EE33E040E08A
:1001300050E0D9D8C90189559F4F8093860190938B
:10014000870108950F931F938DE292E040E052ECF7
:1001500061E070E004D28CEC8CBD09E812E0C801CB
:1001600068E070E0EAD4C80168ED71E083D41F91C3
:100170000F91089588D1E6DFFFCF1F920F920FB63F
:100180000F9211241F932F933F934F935F936F937D
:100190007F938F939F93AF93BF93CF93DF93EF930F
:1001A000FF931EB51A3271F480919D018A3251F489
:1001B00010929C0110929E018DE292E060E071E04D
:1001C0001FD4E0C080919E01882321F481E08093B8
:1001D0009E01D8C080919D019FEF899FE00111246D
:1001E000C10FD11D10929E0180919C01E82FF0E07B
:1001F000EA30F10508F0B6C0E65EFF4F09948DE2E3
:1002000092E066E071E0F0D28DE292E0BE014AE059
:1002100050E0DFD3CE016AE070E051D8685D6093B2
:100220006C01ABC08DE292E06CE071E0DDD28DE25A
:1002300092E0BE014AE050E0CCD3CE015ADF9DC02F
:100240008DE292E061E171E0CFD28DE292E0BE01F9
:100250004AE050E0BED3CE0158DF8FC08DE292E07D
:1002600066E171E0C1D28DE292E0BE014AE050E069
:10027000B0D381E090E04BC08DE292E06DE171E09F
:10028000B3D28DE292E0BE014AE050E0A2D3C53085
:1002900020F084E080936F0170C0C0936F016DC047
:1002A0008DE292E063E271E09FD28DE292E0BE01C6
:1002B0004AE050E08ED3CE0113DF5FC08DE292E0C2
:1002C00068E271E091D28DE292E0BE014AE050E036
:1002D00080D3CE01FCDE51C08DE292E065E371E097
:1002E00083D28DE292E0BE014AE050E072D3C09327
:1002F0007F0143C08DE292E06AE371E075D28DE246
:1003000092E0BE014AE050E064D382E090E0BE019A
:10031000C3DE33C08DE292E06FE371E065D28DE21F
:1003200092E0BE014AE050E054D3BE0180E090E08C
:10033000B6D620E038EF45E456E41DD620E030E0A4
:1003400048EC52E43AD77FD67695679580E090E006
:10035000A6D620E030E040E252E4A9D574D66093FE
:1003600065010BC08DE292E069E471E03DD28DE25F
:1003700092E0BE014AE050E02CD380919C018F5F57
:1003800080939C0110939D01FF91EF91DF91CF919C
:10039000BF91AF919F918F917F916F915F914F919D
:1003A0003F912F911F910F900FBE0F901F901895A6
:1003B0008091BA00803191F460919F0187E0689F3D
:1003C000B00111246E5A7E4F89E892E047E07BD35A
:1003D00080919F018F5F877080939F0108951F9286
:1003E0000F920FB60F9211242F933F934F935F9369
:1003F0006F937F938F939F93AF93BF932091A401AB
:100400003091A5014091A6015091A7017091A801DA
:10041000DA01C9010296A11DB11D672F6A5F6D3710
:1004200030F06D57DA01C9010396A11DB11D60932B
:10043000A8018093A4019093A501A093A601B09375
:10044000A7018091A0019091A101A091A201B0917A
:10045000A3010196A11DB11D8093A0019093A1015C
:10046000A093A201B093A301BF91AF919F918F91EF
:100470007F916F915F914F913F912F910F900FBEA0
:100480000F901F901895789484B5826084BD84B5D0
:10049000816084BD85B5826085BD85B5816085BD7F
:1004A000EEE6F0E0808181608083E1E8F0E0108298
:1004B000808182608083808181608083E0E8F0E0D9
:1004C000808181608083E1EBF0E0808184608083C3
:1004D000E0EBF0E0808181608083EAE7F0E08081FA
:1004E000846080838081826080838081816080835A
:1004F0008081806880831092C10008951F920F92BE
:100500000FB60F9211242F933F934F938F939F9386
:10051000EF93FF934091C600E0912902F0912A02E7
:1005200031969F012F773070319780912B029091F7
:100530002C022817390739F0E755FE4F40833093D6
:100540002A0220932902FF91EF919F918F914F9161
:100550003F912F910F900FBE0F901F901895EF9223
:10056000FF920F931F938C019A01AB01DC01189647
:10057000ED91FC91199781E0E82EF12CC70152967C
:100580000C9002C0880F991F0A94E2F7808360E8FC
:1005900074E88EE190E0C9D6215030404040504090
:1005A000CA01B90122E030E040E050E0BED6D801F7
:1005B0001496ED91FC91159730831696ED91FC9170
:1005C000179720831A96ED91FC911B972081C70104
:1005D0001E960C901E9702C0880F991F0A94E2F78E
:1005E000282B20831A96ED91FC911B972081C7013F
:1005F0001F960C901F9702C0880F991F0A94E2F76C
:10060000282B20831A96ED91FC911B9780815096A0
:100610000C9002C0EE0CFF1C0A94E2F78E29808336
:100620001F910F91FF90EF900895DC011296ED91CC
:10063000FC911397E058FF4F219131918081918176
:10064000281B390B2F773070C9010895DC011296F1
:10065000ED91FC911397EE57FF4F208131819291DC
:100660008291E058F0408217930719F42FEF3FEF83
:1006700005C0E20FF31F8081282F30E0C9010895E3
:10068000DC011296ED91FC911397DF01AE57BF4F3D
:100690002D913C911197E058FF4F80819181E05856
:1006A000F0408217930719F42FEF3FEF0BC0E20FD2
:1006B000F31F80812F5F3F4F2F7730702D933C9336
:1006C000282F30E0C9010895DC011296ED91FC91CC
:1006D0001397EE57FF4F80819181929382930895F3
:1006E000FC01A085B18521898C9190E0022E02C089
:1006F000959587950A94E2F780FFF6CF0484F585F7
:10070000E02D608308958EE891E090932E0280930F
:100710002D0289EA91E09093300280932F0285ECBC
:1007200090E0909332028093310284EC90E09093B9
:1007300034028093330280EC90E0909336028093F1
:10074000350281EC90E0909338028093370286EC7A
:1007500090E090933A028093390284E080933B02C8
:1007600083E080933C0287E080933D0285E08093A4
:100770003E0281E080933F0208950F931F93CF9331
:10078000DF938C01EB0109C02196D801ED91FC911A
:100790000190F081E02DC801099568816623A1F7D9
:1007A000DF91CF911F910F910895EF92FF920F93D8
:1007B0001F93CF93DF938C017B01EA010CC0D7011B
:1007C0006D917D01D801ED91FC910190F081E02DBA
:1007D000C80109952197209791F7DF91CF911F913B
:1007E0000F91FF90EF900895DC01ED91FC91028054
:1007F000F381E02D099508952F923F924F925F92D9
:100800006F927F928F929F92AF92BF92CF92DF9220
:10081000EF92FF920F931F93DF93CF93CDB7DEB785
:10082000A0970FB6F894DEBF0FBECDBF1C016A01C2
:100830007B01411551056105710541F440E350E02C
:1008400060E070E020E030E07BD053C08824992441
:100850005401422E55246624772401E010E00C0F49
:100860001D1F080D191DC701B601A30192013BD53B
:10087000F80160830894811C911CA11CB11CC70164
:10088000B601A30192012FD5C901DA016C017D01E6
:10089000C114D104E104F10401F781E0E82EF12C48
:1008A000EC0EFD1EE80CF91C3E010894611C711C45
:1008B000D501C4010197A109B1096C01C818D90873
:1008C00015C0F601EE0DFF1D40814A3010F4405D69
:1008D00001C0495C552747FD5095652F752FC10113
:1008E00020E030E02DD00894E108F1086E147F0478
:1008F00041F7A0960FB6F894DEBF0FBECDBFCF91E3
:10090000DF911F910F91FF90EF90DF90CF90BF90FC
:10091000AF909F908F907F906F905F904F903F909F
:100920002F900895DC012115310541F4ED91FC91E2
:100930000190F081E02D642F099508955DDF089501
:10094000EF92FF920F931F93CF93DF93EC017A0105
:100950008B012115310541F4E881F9810190F08185
:10096000E02D642F099519C02A303105A9F477FFCD
:100970000FC04DE250E060E070E020E030E0E0DFEA
:1009800010950095F094E094E11CF11C011D111DDF
:10099000CE01B801A7012AE02FDFDF91CF911F918F
:1009A0000F91FF90EF9008950F931F938C014DE0EE
:1009B00050E060E070E020E030E0C2DFC8014AE0D3
:1009C00050E060E070E020E030E0BADF1F910F916E
:1009D0000895CF92DF92EF92FF920F931F938C01B5
:1009E0009A016B01EE24FF24B701A6019BDFC80129
:1009F000DBDF1F910F91FF90EF90DF90CF90089574
:100A00000F931F938C01F0DEC801CEDF1F910F9171
:100A10000895AC012091870230918802211531059B
:100A2000E1F090916002809161029817B0F090E03F
:100A300008C0FA01EA0FFB1F8081A05CBD4F8C93B8
:100A40009F5FA92FB0E0A617B7079CF31092600232
:100A500060936102CB01F90109950895E091850247
:100A6000F0918602309729F0109282021092830250
:100A700009950895709386026093850208950895FC
:100A8000DF93CF930F92CDB7DEB769838091840255
:100A9000882389F080918302803288F480918202D9
:100AA000E82FF0E0EE59FD4F60838F5F8093820264
:100AB0008093830204C0CE01019661E057D00F906D
:100AC000CF91DF910895EF92FF920F931F93CF93F1
:100AD000DF937C01042F80918402882351F0EB0185
:100AE00010E004C0C7016991CBDF1F5F1017D0F37E
:100AF00003C0CB01642F3AD0DF91CF911F910F91AA
:100B0000FF90EF900895109260021092610210928F
:100B100082021092830213D008950F931F938C01C9
:100B2000862F20D08EE295E041D089E095E039D043
:100B3000C801E9DF1F910F910895EFDF089510922A
:100B40008A02589A599AE9EBF0E080818E7F80837F
:100B500080818D7F808388E48093B80085E48093D2
:100B6000BC000895880F8093BA000895482F613221
:100B700010F081E0089580918A02843011F082E0C3
:100B800008956093D302A2EBB2E0842F9C01F90197
:100B900002C081918D938E2F841B8617D0F380E045
:100BA000089590938F0280938E02089590938D0202
:100BB00080938C0208951F920F920FB60F9211240A
:100BC0002F933F934F935F936F937F938F939F9355
:100BD000AF93BF93EF93FF938091B90090E0887F2C
:100BE00090708036910509F4DCC081369105CCF512
:100BF0008832910509F47BC089329105B4F48031C3
:100C0000910509F46FC0813191053CF4009709F416
:100C100031C1089709F039C165C08831910509F4DF
:100C200066C0809709F031C17DC08034910509F418
:100C30009FC08134910544F48033910509F47DC04F
:100C4000C89709F022C184C08035910509F484C099
:100C50008835910509F491C08834910509F015C1D2
:100C600098C08839910509F4FDC089399105ECF4E3
:100C70008837910509F495C0893791054CF4883679
:100C8000910509F48EC08037910509F0FEC089C036
:100C90008838910509F4E6C08039910509F487C0C8
:100CA0008038910509F0F1C082C0803B910509F4BC
:100CB000B0C0813B91054CF4803A910509F489C09C
:100CC000883A910509F0E1C0A4C0803C910509F47F
:100CD000CDC0883C910509F4C9C0883B910509F055
:100CE000D4C0ACC080918B028093BB00B9C09091FE
:100CF000B0028091B102981768F49091B002E92F88
:100D0000F0E0E057FD4F80818093BB009F5F9093A0
:100D1000B002A6C085ED8093BC008091BC0084FD2C
:100D2000FCCFB1C080E28093F50285ED8093BC00DA
:100D30008091BC0084FDFCCFA6C080E38093F502C7
:100D400085ED8093BC008091BC0084FDFCCF9BC0EE
:100D500088E38093F5028AC08091B0029091BB0035
:100D6000E82FF0E0E057FD4F90838F5F8093B00253
:100D70009091B0028091B10271C08091B0029091C7
:100D8000BB00E82FF0E0E057FD4F90838F5F80932A
:100D9000B00285ED8093BC008091BC0084FDFCCF47
:100DA00072C083E080938A021092F40259C080914D
:100DB000F402803208F056C08091F4029091BB009A
:100DC000E82FF0E0EC52FD4F90838F5F8093F402A8
:100DD00047C08091F402803230F4E091F402F0E0F8
:100DE000EC52FD4F108285ED8093BC008091BC00D9
:100DF00084FDFCCF10928A026091F402E0918E0291
:100E0000F0918F0284ED92E070E009951092F40267
:100E10002DC084E080938A021092D2021092D302F5
:100E2000E0918C02F0918D0209958091D302882384
:100E300029F481E08093D3021092B2029091D20201
:100E4000E92FF0E0EE54FD4F80818093BB009F5F5F
:100E50009093D2029091D2028091D302981710F40D
:100E600085EC01C085E88093BC000FC085EC8093C1
:100E7000BC0009C01092F50285ED8093BC00809102
:100E8000BC0084FDFCCF10928A02FF91EF91BF91CC
:100E9000AF919F918F917F916F915F914F913F9112
:100EA0002F910F900FBE0F901F9018955058BB2791
:100EB000AA270ED048C139D130F03ED120F031F40C
:100EC0009F3F11F41EF42EC10EF4E095E7FB24C100
:100ED000E92F4AD180F3BA17620773078407950791
:100EE00018F071F49EF562C10EF4E0950B2EBA2F46
:100EF000A02D0B01B90190010C01CA01A001112420
:100F0000FF27591B99F0593F50F4503E68F11A16CB
:100F1000F040A22F232F342F4427585FF3CF46955C
:100F200037952795A795F0405395C9F77EF41F167E
:100F3000BA0B620B730B840BBAF09150A1F0FF0F48
:100F4000BB1F661F771F881FC2F70EC0BA0F621F34
:100F5000731F841F48F4879577956795B795F79524
:100F60009E3F08F0B3CF9395880F08F09927EE0FB6
:100F70009795879508950CD0E6C0DED040F0D5D087
:100F800030F021F45F3F19F0C7C0511110C1CAC041
:100F9000EBD098F39923C9F35523B1F3951B550B67
:100FA000BB27AA2762177307840738F09F5F5F4F3C
:100FB000220F331F441FAA1FA9F333D00E2E3AF07D
:100FC000E0E830D091505040E695001CCAF729D097
:100FD000FE2F27D0660F771F881FBB1F26173707E6
:100FE0004807AB07B0E809F0BB0B802DBF01FF2716
:100FF00093585F4F2AF09E3F510568F08DC0D7C0CF
:101000005F3FECF3983EDCF3869577956795B7954F
:10101000F7959F5FC9F7880F911D9695879597F96A
:101020000895E1E0660F771F881FBB1F62177307E3
:101030008407BA0720F0621B730B840BBA0BEE1FF8
:1010400088F7E095089598D088F09F5790F0B92FD1
:101050009927B751A0F0D1F0660F771F881F991F0D
:101060001AF0BA95C9F712C0B13081F09FD0B1E043
:1010700008959CC0672F782F8827B85F39F0B93F53
:10108000CCF3869577956795B395D9F73EF490950F
:101090008095709561957F4F8F4F9F4F0895E8948D
:1010A00009C097FB3EF490958095709561957F4FB0
:1010B0008F4F9F4F9923A9F0F92F96E9BB2793955E
:1010C000F695879577956795B795F111F8CFFAF46E
:1010D000BB0F11F460FF1BC06F5F7F4F8F4F9F4F9F
:1010E00016C0882311F096E911C0772321F09EE8FD
:1010F000872F762F05C0662371F096E8862F70E063
:1011000060E02AF09A95660F771F881FDAF7880F3C
:101110009695879597F9089597F99F6780E870E00D
:1011200060E008959FEF80EC089500240A9416165D
:10113000170618060906089500240A9412161306C5
:10114000140605060895092E0394000C11F4882353
:1011500052F0BB0F40F4BF2B11F460FF04C06F5F6F
:101160007F4F8F4F9F4F089557FD9058440F551F45
:1011700059F05F3F71F04795880F97FB991F61F019
:101180009F3F79F087950895121613061406551F90
:10119000F2CF4695F1DF08C0161617061806991FFC
:1011A000F1CF86957105610508940895E894BB27F1
:1011B00066277727CB0197F908950BD0C4CFB5DF09
:1011C00028F0BADF18F0952309F0A6CFABCF112491
:1011D000EECFCADFA0F3959FD1F3950F50E0551FD6
:1011E000629FF001729FBB27F00DB11D639FAA277C
:1011F000F00DB11DAA1F649F6627B00DA11D661FCB
:10120000829F2227B00DA11D621F739FB00DA11DEB
:10121000621F839FA00D611D221F749F3327A00DA5
:10122000611D231F849F600D211D822F762F6A2F41
:1012300011249F5750408AF0E1F088234AF0EE0FC6
:10124000FF1FBB1F661F771F881F91505040A9F7D3
:101250009E3F510570F060CFAACF5F3FECF3983E00
:10126000DCF3869577956795B795F795E7959F5F3A
:10127000C1F7FE2B880F911D9695879597F90895D4
:10128000629FD001739FF001829FE00DF11D649F6A
:10129000E00DF11D929FF00D839FF00D749FF00DF6
:1012A000659FF00D9927729FB00DE11DF91F639F97
:1012B000B00DE11DF91FBD01CF0111240895AA1B36
:1012C000BB1B51E107C0AA1FBB1FA617B70710F031
:1012D000A61BB70B881F991F5A95A9F78095909563
:1012E000BC01CD010895A1E21A2EAA1BBB1BFD0172
:1012F0000DC0AA1FBB1FEE1FFF1FA217B307E407F5
:10130000F50720F0A21BB30BE40BF50B661F771F4C
:10131000881F991F1A9469F760957095809590952C
:101320009B01AC01BD01CF01089597FB092E052655
:101330000ED057FD04D0D7DF0AD0001C38F45095EA
:101340004095309521953F4F4F4F5F4F0895F6F7E9
:1013500090958095709561957F4F8F4F9F4F089521
:10136000EE0FFF1F0590F491E02D0994F894FFCF44
:1013700052657365740074656D703A006261743A09
:1013800000616D703A00746F74616C3A0066756547
:101390006C3A00616C743A0067726F756E647370BA
:1013A0006565643A006770733A006169723A007467
:1013B00068726F74746C653A00756E6B6E6F776EE1
:1013C0003A0011AF002D00001112002C2C2E251216
:1013D000131801D42228131400000000281415004B
:1013E000FF01FE0115163C041D00001617009906AA
:1013F00028281718000000000018000000007003E3
:0C140000BD03D50315034003260364035D
:00000001FF
